{
  "contractName": "DataConsent",
  "abi": [
    {
      "inputs": [],
      "stateMutability": "nonpayable",
      "type": "constructor"
    },
    {
      "inputs": [
        {
          "internalType": "address",
          "name": "owner",
          "type": "address"
        },
        {
          "internalType": "address",
          "name": "company",
          "type": "address"
        }
      ],
      "name": "AccessAlreadyRequested",
      "type": "error"
    },
    {
      "inputs": [
        {
          "internalType": "address",
          "name": "target",
          "type": "address"
        }
      ],
      "name": "AddressEmptyCode",
      "type": "error"
    },
    {
      "inputs": [
        {
          "internalType": "address",
          "name": "owner",
          "type": "address"
        }
      ],
      "name": "DataAlreadyRegistered",
      "type": "error"
    },
    {
      "inputs": [
        {
          "internalType": "address",
          "name": "implementation",
          "type": "address"
        }
      ],
      "name": "ERC1967InvalidImplementation",
      "type": "error"
    },
    {
      "inputs": [],
      "name": "ERC1967NonPayable",
      "type": "error"
    },
    {
      "inputs": [],
      "name": "FailedInnerCall",
      "type": "error"
    },
    {
      "inputs": [],
      "name": "InvalidInitialization",
      "type": "error"
    },
    {
      "inputs": [
        {
          "internalType": "address",
          "name": "owner",
          "type": "address"
        },
        {
          "internalType": "address",
          "name": "company",
          "type": "address"
        }
      ],
      "name": "NoPendingRequestForCompany",
      "type": "error"
    },
    {
      "inputs": [],
      "name": "NotInitializing",
      "type": "error"
    },
    {
      "inputs": [
        {
          "internalType": "address",
          "name": "owner",
          "type": "address"
        }
      ],
      "name": "OwnableInvalidOwner",
      "type": "error"
    },
    {
      "inputs": [
        {
          "internalType": "address",
          "name": "account",
          "type": "address"
        }
      ],
      "name": "OwnableUnauthorizedAccount",
      "type": "error"
    },
    {
      "inputs": [
        {
          "internalType": "address",
          "name": "owner",
          "type": "address"
        }
      ],
      "name": "RecordNotActive",
      "type": "error"
    },
    {
      "inputs": [],
      "name": "UUPSUnauthorizedCallContext",
      "type": "error"
    },
    {
      "inputs": [
        {
          "internalType": "bytes32",
          "name": "slot",
          "type": "bytes32"
        }
      ],
      "name": "UUPSUnsupportedProxiableUUID",
      "type": "error"
    },
    {
      "inputs": [
        {
          "internalType": "address",
          "name": "owner",
          "type": "address"
        },
        {
          "internalType": "address",
          "name": "user",
          "type": "address"
        }
      ],
      "name": "UserAlreadyAuthorized",
      "type": "error"
    },
    {
      "inputs": [
        {
          "internalType": "address",
          "name": "owner",
          "type": "address"
        },
        {
          "internalType": "address",
          "name": "user",
          "type": "address"
        }
      ],
      "name": "UserNotFoundInAuthorizedList",
      "type": "error"
    },
    {
      "anonymous": false,
      "inputs": [
        {
          "indexed": true,
          "internalType": "address",
          "name": "owner",
          "type": "address"
        },
        {
          "indexed": true,
          "internalType": "address",
          "name": "authorizedUser",
          "type": "address"
        },
        {
          "indexed": false,
          "internalType": "uint64",
          "name": "timestamp",
          "type": "uint64"
        }
      ],
      "name": "AccessGranted",
      "type": "event"
    },
    {
      "anonymous": false,
      "inputs": [
        {
          "indexed": true,
          "internalType": "address",
          "name": "owner",
          "type": "address"
        },
        {
          "indexed": true,
          "internalType": "address",
          "name": "company",
          "type": "address"
        }
      ],
      "name": "AccessRequested",
      "type": "event"
    },
    {
      "anonymous": false,
      "inputs": [
        {
          "indexed": true,
          "internalType": "address",
          "name": "owner",
          "type": "address"
        },
        {
          "indexed": true,
          "internalType": "address",
          "name": "revokedUser",
          "type": "address"
        },
        {
          "indexed": false,
          "internalType": "uint64",
          "name": "timestamp",
          "type": "uint64"
        }
      ],
      "name": "AccessRevoked",
      "type": "event"
    },
    {
      "anonymous": false,
      "inputs": [
        {
          "indexed": true,
          "internalType": "address",
          "name": "owner",
          "type": "address"
        },
        {
          "indexed": false,
          "internalType": "string",
          "name": "dataHash",
          "type": "string"
        },
        {
          "indexed": false,
          "internalType": "uint64",
          "name": "timestamp",
          "type": "uint64"
        }
      ],
      "name": "ConsentRegistered",
      "type": "event"
    },
    {
      "anonymous": false,
      "inputs": [
        {
          "indexed": false,
          "internalType": "uint64",
          "name": "version",
          "type": "uint64"
        }
      ],
      "name": "Initialized",
      "type": "event"
    },
    {
      "anonymous": false,
      "inputs": [
        {
          "indexed": true,
          "internalType": "address",
          "name": "previousOwner",
          "type": "address"
        },
        {
          "indexed": true,
          "internalType": "address",
          "name": "newOwner",
          "type": "address"
        }
      ],
      "name": "OwnershipTransferred",
      "type": "event"
    },
    {
      "anonymous": false,
      "inputs": [
        {
          "indexed": true,
          "internalType": "address",
          "name": "owner",
          "type": "address"
        },
        {
          "indexed": true,
          "internalType": "address",
          "name": "company",
          "type": "address"
        }
      ],
      "name": "RequestApproved",
      "type": "event"
    },
    {
      "anonymous": false,
      "inputs": [
        {
          "indexed": true,
          "internalType": "address",
          "name": "implementation",
          "type": "address"
        }
      ],
      "name": "Upgraded",
      "type": "event"
    },
    {
      "inputs": [],
      "name": "UPGRADE_INTERFACE_VERSION",
      "outputs": [
        {
          "internalType": "string",
          "name": "",
          "type": "string"
        }
      ],
      "stateMutability": "view",
      "type": "function",
      "constant": true
    },
    {
      "inputs": [
        {
          "internalType": "address",
          "name": "",
          "type": "address"
        },
        {
          "internalType": "address",
          "name": "",
          "type": "address"
        }
      ],
      "name": "accessRequests",
      "outputs": [
        {
          "internalType": "uint8",
          "name": "",
          "type": "uint8"
        }
      ],
      "stateMutability": "view",
      "type": "function",
      "constant": true
    },
    {
      "inputs": [],
      "name": "owner",
      "outputs": [
        {
          "internalType": "address",
          "name": "",
          "type": "address"
        }
      ],
      "stateMutability": "view",
      "type": "function",
      "constant": true
    },
    {
      "inputs": [],
      "name": "proxiableUUID",
      "outputs": [
        {
          "internalType": "bytes32",
          "name": "",
          "type": "bytes32"
        }
      ],
      "stateMutability": "view",
      "type": "function",
      "constant": true
    },
    {
      "inputs": [
        {
          "internalType": "address",
          "name": "",
          "type": "address"
        }
      ],
      "name": "records",
      "outputs": [
        {
          "internalType": "string",
          "name": "dataHash",
          "type": "string"
        },
        {
          "internalType": "address",
          "name": "owner",
          "type": "address"
        },
        {
          "internalType": "uint64",
          "name": "timestamp",
          "type": "uint64"
        },
        {
          "internalType": "bool",
          "name": "active",
          "type": "bool"
        }
      ],
      "stateMutability": "view",
      "type": "function",
      "constant": true
    },
    {
      "inputs": [],
      "name": "renounceOwnership",
      "outputs": [],
      "stateMutability": "nonpayable",
      "type": "function"
    },
    {
      "inputs": [
        {
          "internalType": "address",
          "name": "newOwner",
          "type": "address"
        }
      ],
      "name": "transferOwnership",
      "outputs": [],
      "stateMutability": "nonpayable",
      "type": "function"
    },
    {
      "inputs": [
        {
          "internalType": "address",
          "name": "newImplementation",
          "type": "address"
        },
        {
          "internalType": "bytes",
          "name": "data",
          "type": "bytes"
        }
      ],
      "name": "upgradeToAndCall",
      "outputs": [],
      "stateMutability": "payable",
      "type": "function",
      "payable": true
    },
    {
      "inputs": [
        {
          "internalType": "address",
          "name": "initialOwner",
          "type": "address"
        }
      ],
      "name": "initialize",
      "outputs": [],
      "stateMutability": "nonpayable",
      "type": "function"
    },
    {
      "inputs": [
        {
          "internalType": "address",
          "name": "_owner",
          "type": "address"
        }
      ],
      "name": "getRecordByOwner",
      "outputs": [
        {
          "internalType": "string",
          "name": "dataHash",
          "type": "string"
        },
        {
          "internalType": "address",
          "name": "owner",
          "type": "address"
        },
        {
          "internalType": "address[]",
          "name": "authorizedUsers",
          "type": "address[]"
        },
        {
          "internalType": "uint64",
          "name": "timestamp",
          "type": "uint64"
        },
        {
          "internalType": "bool",
          "name": "active",
          "type": "bool"
        }
      ],
      "stateMutability": "view",
      "type": "function",
      "constant": true
    },
    {
      "inputs": [
        {
          "internalType": "string",
          "name": "_dataHash",
          "type": "string"
        },
        {
          "internalType": "address[]",
          "name": "_initialAuthorizedUsers",
          "type": "address[]"
        }
      ],
      "name": "registerData",
      "outputs": [],
      "stateMutability": "nonpayable",
      "type": "function"
    },
    {
      "inputs": [
        {
          "internalType": "address",
          "name": "user",
          "type": "address"
        }
      ],
      "name": "authorizeAccess",
      "outputs": [],
      "stateMutability": "nonpayable",
      "type": "function"
    },
    {
      "inputs": [
        {
          "internalType": "address",
          "name": "_owner",
          "type": "address"
        }
      ],
      "name": "requestAccess",
      "outputs": [],
      "stateMutability": "nonpayable",
      "type": "function"
    },
    {
      "inputs": [
        {
          "internalType": "address",
          "name": "_company",
          "type": "address"
        }
      ],
      "name": "approveRequest",
      "outputs": [],
      "stateMutability": "nonpayable",
      "type": "function"
    },
    {
      "inputs": [
        {
          "internalType": "address",
          "name": "user",
          "type": "address"
        }
      ],
      "name": "revokeAccess",
      "outputs": [],
      "stateMutability": "nonpayable",
      "type": "function"
    }
  ],
  "bytecode": "0x60a060405230608052348015610013575f80fd5b5061001c610021565b6100d3565b7ff0c57e16840df040f15088dc2f81fe391c3923bec73e23a9662efc9c229c6a00805468010000000000000000900460ff16156100715760405163f92ee8a960e01b815260040160405180910390fd5b80546001600160401b03908116146100d05780546001600160401b0319166001600160401b0390811782556040519081527fc7f505b2f371ae2175ee4913f4499e1f2633a7b5936321eed1cdaeb6115181d29060200160405180910390a15b50565b6080516118d46100f95f395f8181610ca801528181610cd10152610e1501526118d45ff3fe6080604052600436106100e4575f3560e01c80638da5cb5b11610087578063eed1421811610057578063eed14218146102b5578063f1d444e1146102d4578063f2fde38b14610304578063f409c11514610323575f80fd5b80638da5cb5b146101c8578063ab4f23291461020e578063ad3cb1cc14610259578063c4d66de814610296575f80fd5b80634f1ef286116100c25780634f1ef2861461016057806352d1902d14610173578063715018a61461019557806385e68531146101a9575f80fd5b8063022cb271146100e8578063061dff9a14610109578063469e906714610128575b5f80fd5b3480156100f3575f80fd5b5061010761010236600461133d565b610342565b005b348015610114575f80fd5b5061010761012336600461133d565b610443565b348015610133575f80fd5b5061014761014236600461133d565b61054d565b60405161015794939291906113a3565b60405180910390f35b61010761016e36600461147d565b610615565b34801561017e575f80fd5b50610187610634565b604051908152602001610157565b3480156101a0575f80fd5b5061010761064f565b3480156101b4575f80fd5b506101076101c336600461133d565b610662565b3480156101d3575f80fd5b507f9016d09d72d40fdae2fd8ceac6b6234c7706214fd39c1cd1e609a0528c199300546040516001600160a01b039091168152602001610157565b348015610219575f80fd5b506102476102283660046114da565b600260209081525f928352604080842090915290825290205460ff1681565b60405160ff9091168152602001610157565b348015610264575f80fd5b50610289604051806040016040528060058152602001640352e302e360dc1b81525081565b604051610157919061150b565b3480156102a1575f80fd5b506101076102b036600461133d565b610795565b3480156102c0575f80fd5b506101076102cf36600461133d565b6108a9565b3480156102df575f80fd5b506102f36102ee36600461133d565b61097b565b60405161015795949392919061151d565b34801561030f575f80fd5b5061010761031e36600461133d565b610a77565b34801561032e575f80fd5b5061010761033d3660046115a1565b610ab4565b6001600160a01b0381165f908152602081905260409020600101548190600160e01b900460ff166103955760405162b7261760e71b81526001600160a01b03821660048201526024015b60405180910390fd5b6001600160a01b0382165f90815260026020908152604080832033845290915290205460ff16156103ea5760405163290dde1b60e01b81526001600160a01b038316600482015233602482015260440161038c565b6001600160a01b0382165f818152600260209081526040808320338085529252808320805460ff19166001179055519092917f40c7749b16fdfb0d550f20273a7767875059d647af94f5a9610c63ad73dcc79f91a35050565b335f81815260208190526040902060010154600160e01b900460ff166104865760405162b7261760e71b81526001600160a01b038216600482015260240161038c565b335f9081526002602090815260408083206001600160a01b038616845290915290205460ff166001146104dd57604051636d1d606b60e11b81523360048201526001600160a01b038316602482015260440161038c565b335f9081526002602081815260408084206001600160a01b0387168552909152909120805460ff19169091179055610514826108a9565b6040516001600160a01b0383169033907f9f13b8ec2aa688e5693317f76d1c2e4726fdf5561010e79f2c3770bcd7c497ca905f90a35050565b5f6020819052908152604090208054819061056790611683565b80601f016020809104026020016040519081016040528092919081815260200182805461059390611683565b80156105de5780601f106105b5576101008083540402835291602001916105de565b820191905f5260205f20905b8154815290600101906020018083116105c157829003601f168201915b505050600190930154919250506001600160a01b038116906001600160401b03600160a01b8204169060ff600160e01b9091041684565b61061d610c9d565b61062682610d41565b6106308282610d49565b5050565b5f61063d610e0a565b505f8051602061187f83398151915290565b610657610e53565b6106605f610eae565b565b335f81815260208190526040902060010154600160e01b900460ff166106a55760405162b7261760e71b81526001600160a01b038216600482015260240161038c565b335f9081526001602052604081206106bd9084610f1e565b9050806106ee57604051631f68915960e31b81523360048201526001600160a01b038416602482015260440161038c565b335f9081526002602081815260408084206001600160a01b03881685529091529091205460ff16900361074657335f9081526002602090815260408083206001600160a01b03871684529091529020805460ff191690555b6040516001600160401b03421681526001600160a01b0384169033907feaa2c46f7d7ad896891dc5bb9af296f002d374a85f66d09639de9674a5da7d4b906020015b60405180910390a3505050565b7ff0c57e16840df040f15088dc2f81fe391c3923bec73e23a9662efc9c229c6a008054600160401b810460ff1615906001600160401b03165f811580156107d95750825b90505f826001600160401b031660011480156107f45750303b155b905081158015610802575080155b156108205760405163f92ee8a960e01b815260040160405180910390fd5b845467ffffffffffffffff19166001178555831561084a57845460ff60401b1916600160401b1785555b61085386610f3b565b61085b610f4c565b83156108a157845460ff60401b19168555604051600181527fc7f505b2f371ae2175ee4913f4499e1f2633a7b5936321eed1cdaeb6115181d29060200160405180910390a15b505050505050565b335f81815260208190526040902060010154600160e01b900460ff166108ec5760405162b7261760e71b81526001600160a01b038216600482015260240161038c565b335f9081526001602052604081206109049084610f54565b905080610935576040516350e66d8f60e01b81523360048201526001600160a01b038416602482015260440161038c565b6040516001600160401b03421681526001600160a01b0384169033907ff8f7cf7e83eb019ed41d65d0da40fc3c499f24fd33cd26f92bec1e15b5a6475c90602001610788565b6001600160a01b038082165f9081526020818152604080832060018082015493529083206060948593859384939092839216906109b790610f68565b60018401548354600160a01b82046001600160401b031691600160e01b900460ff169085906109e590611683565b80601f0160208091040260200160405190810160405280929190818152602001828054610a1190611683565b8015610a5c5780601f10610a3357610100808354040283529160200191610a5c565b820191905f5260205f20905b815481529060010190602001808311610a3f57829003601f168201915b50505050509450955095509550955095505091939590929450565b610a7f610e53565b6001600160a01b038116610aa857604051631e4fbdf760e01b81525f600482015260240161038c565b610ab181610eae565b50565b335f90815260208190526040902060010154600160e01b900460ff1615610af057604051636a61178360e11b815233600482015260240161038c565b604080516080810182528381523360208083018290526001600160401b03421683850152600160608401525f9182528190529190912081518190610b349082611700565b5060208201516001909101805460408401516060909401511515600160e01b0260ff60e01b196001600160401b03909516600160a01b026001600160e01b03199092166001600160a01b039094169390931717929092161790555f5b8151811015610c5557610bcf828281518110610bae57610bae6117bb565b602090810291909101810151335f9081526001909252604090912090610f54565b50818181518110610be257610be26117bb565b60200260200101516001600160a01b0316336001600160a01b03167ff8f7cf7e83eb019ed41d65d0da40fc3c499f24fd33cd26f92bec1e15b5a6475c42604051610c3b91906001600160401b0391909116815260200190565b60405180910390a380610c4d816117e3565b915050610b90565b50336001600160a01b03167f6d1eb012b84ad9a6659bd3f1e86378d35dcb5a642b218eb7c37a144fad0ce9228342604051610c919291906117fb565b60405180910390a25050565b306001600160a01b037f0000000000000000000000000000000000000000000000000000000000000000161480610d2357507f00000000000000000000000000000000000000000000000000000000000000006001600160a01b0316610d175f8051602061187f833981519152546001600160a01b031690565b6001600160a01b031614155b156106605760405163703e46dd60e11b815260040160405180910390fd5b610ab1610e53565b816001600160a01b03166352d1902d6040518163ffffffff1660e01b8152600401602060405180830381865afa925050508015610da3575060408051601f3d908101601f19168201909252610da091810190611825565b60015b610dcb57604051634c9c8ce360e01b81526001600160a01b038316600482015260240161038c565b5f8051602061187f8339815191528114610dfb57604051632a87526960e21b81526004810182905260240161038c565b610e058383610f7b565b505050565b306001600160a01b037f000000000000000000000000000000000000000000000000000000000000000016146106605760405163703e46dd60e11b815260040160405180910390fd5b33610e857f9016d09d72d40fdae2fd8ceac6b6234c7706214fd39c1cd1e609a0528c199300546001600160a01b031690565b6001600160a01b0316146106605760405163118cdaa760e01b815233600482015260240161038c565b7f9016d09d72d40fdae2fd8ceac6b6234c7706214fd39c1cd1e609a0528c19930080546001600160a01b031981166001600160a01b03848116918217845560405192169182907f8be0079c531659141344cd1fd0a4f28419497f9722a3daafe3b4186f6b6457e0905f90a3505050565b5f610f32836001600160a01b038416610fd0565b90505b92915050565b610f436110b3565b610ab1816110fc565b6106606110b3565b5f610f32836001600160a01b038416611104565b60605f610f7483611150565b9392505050565b610f84826111a9565b6040516001600160a01b038316907fbc7cd75a20ee27fd9adebab32041f755214dbc6bffa90cc0225b39da2e5c2d3b905f90a2805115610fc857610e05828261120c565b61063061127e565b5f81815260018301602052604081205480156110aa575f610ff260018361183c565b85549091505f906110059060019061183c565b9050808214611064575f865f018281548110611023576110236117bb565b905f5260205f200154905080875f018481548110611043576110436117bb565b5f918252602080832090910192909255918252600188019052604090208390555b85548690806110755761107561184f565b600190038181905f5260205f20015f90559055856001015f8681526020019081526020015f205f905560019350505050610f35565b5f915050610f35565b7ff0c57e16840df040f15088dc2f81fe391c3923bec73e23a9662efc9c229c6a0054600160401b900460ff1661066057604051631afcd79f60e31b815260040160405180910390fd5b610a7f6110b3565b5f81815260018301602052604081205461114957508154600181810184555f848152602080822090930184905584548482528286019093526040902091909155610f35565b505f610f35565b6060815f0180548060200260200160405190810160405280929190818152602001828054801561119d57602002820191905f5260205f20905b815481526020019060010190808311611189575b50505050509050919050565b806001600160a01b03163b5f036111de57604051634c9c8ce360e01b81526001600160a01b038216600482015260240161038c565b5f8051602061187f83398151915280546001600160a01b0319166001600160a01b0392909216919091179055565b60605f80846001600160a01b0316846040516112289190611863565b5f60405180830381855af49150503d805f8114611260576040519150601f19603f3d011682016040523d82523d5f602084013e611265565b606091505b509150915061127585838361129d565b95945050505050565b34156106605760405163b398979f60e01b815260040160405180910390fd5b6060826112b2576112ad826112f9565b610f74565b81511580156112c957506001600160a01b0384163b155b156112f257604051639996b31560e01b81526001600160a01b038516600482015260240161038c565b5092915050565b8051156113095780518082602001fd5b604051630a12f52160e11b815260040160405180910390fd5b80356001600160a01b0381168114611338575f80fd5b919050565b5f6020828403121561134d575f80fd5b610f3282611322565b5f5b83811015611370578181015183820152602001611358565b50505f910152565b5f815180845261138f816020860160208601611356565b601f01601f19169290920160200192915050565b608081525f6113b56080830187611378565b6001600160a01b03959095166020830152506001600160401b039290921660408301521515606090910152919050565b634e487b7160e01b5f52604160045260245ffd5b604051601f8201601f191681016001600160401b0381118282101715611421576114216113e5565b604052919050565b5f6001600160401b03831115611441576114416113e5565b611454601f8401601f19166020016113f9565b9050828152838383011115611467575f80fd5b828260208301375f602084830101529392505050565b5f806040838503121561148e575f80fd5b61149783611322565b915060208301356001600160401b038111156114b1575f80fd5b8301601f810185136114c1575f80fd5b6114d085823560208401611429565b9150509250929050565b5f80604083850312156114eb575f80fd5b6114f483611322565b915061150260208401611322565b90509250929050565b602081525f610f326020830184611378565b60a081525f61152f60a0830188611378565b6001600160a01b0387811660208581019190915284830360408601528751808452888201939192918301905f5b8181101561157a57855184168352948401949184019160010161155c565b50506001600160401b03979097166060860152505050509015156080909101529392505050565b5f80604083850312156115b2575f80fd5b82356001600160401b03808211156115c8575f80fd5b818501915085601f8301126115db575f80fd5b60206115eb878435838601611429565b9450808601359250818311156115ff575f80fd5b828601925086601f840112611612575f80fd5b823582811115611624576116246113e5565b8060051b92506116358284016113f9565b818152928401820192828101908985111561164e575f80fd5b948301945b848610156116735761166486611322565b82529483019490830190611653565b8096505050505050509250929050565b600181811c9082168061169757607f821691505b6020821081036116b557634e487b7160e01b5f52602260045260245ffd5b50919050565b601f821115610e05575f81815260208120601f850160051c810160208610156116e15750805b601f850160051c820191505b818110156108a1578281556001016116ed565b81516001600160401b03811115611719576117196113e5565b61172d816117278454611683565b846116bb565b602080601f831160018114611760575f84156117495750858301515b5f19600386901b1c1916600185901b1785556108a1565b5f85815260208120601f198616915b8281101561178e5788860151825594840194600190910190840161176f565b50858210156117ab57878501515f19600388901b60f8161c191681555b5050505050600190811b01905550565b634e487b7160e01b5f52603260045260245ffd5b634e487b7160e01b5f52601160045260245ffd5b5f600182016117f4576117f46117cf565b5060010190565b604081525f61180d6040830185611378565b90506001600160401b03831660208301529392505050565b5f60208284031215611835575f80fd5b5051919050565b81810381811115610f3557610f356117cf565b634e487b7160e01b5f52603160045260245ffd5b5f8251611874818460208701611356565b919091019291505056fe360894a13ba1a3210667c828492db98dca3e2076cc3735a920a3ca505d382bbca2646970667358221220b1a515e7c1a1aa3000299fa7fd38fd0ce8148c3afe7f1d1ba98152351633d94964736f6c63430008140033",
  "immutableReferences": {
    "468": [
      {
        "length": 32,
        "start": 3240
      },
      {
        "length": 32,
        "start": 3281
      },
      {
        "length": 32,
        "start": 3605
      }
    ]
  },
  "source": "// SPDX-License-Identifier: UNLICENSED\r\npragma solidity ^0.8.20;\r\n\r\nimport {Initializable} from \"@openzeppelin/contracts-upgradeable/proxy/utils/Initializable.sol\";\r\nimport {UUPSUpgradeable} from \"@openzeppelin/contracts-upgradeable/proxy/utils/UUPSUpgradeable.sol\";\r\nimport {OwnableUpgradeable} from \"@openzeppelin/contracts-upgradeable/access/OwnableUpgradeable.sol\";\r\nimport {EnumerableSet} from \"@openzeppelin/contracts/utils/structs/EnumerableSet.sol\";\r\n\r\n/// @title DataConsent \r\n/// @notice Upgradeable smart contract to track user-granted data consent to companies\r\n/// @dev Uses UUPS proxy pattern and EnumerableSet for O(1) loop-free access checks\r\ncontract DataConsent is Initializable, UUPSUpgradeable, OwnableUpgradeable {\r\n    using EnumerableSet for EnumerableSet.AddressSet;\r\n\r\n    /// @notice Optimized Struct (fits into fewer storage slots)\r\n    struct DataRecord {\r\n        string dataHash;\r\n        address owner;\r\n        uint64 timestamp;\r\n        bool active;\r\n    }\r\n    \r\n    mapping(address => DataRecord) public records;\r\n    \r\n    // Mapping from data owner => set of authorized companies\r\n    mapping(address => EnumerableSet.AddressSet) private authorizedCompanies;\r\n\r\n    // Mapping from data owner => company => status (0: None, 1: Pending, 2: Approved)\r\n    mapping(address => mapping(address => uint8)) public accessRequests; \r\n\r\n    // Custom Errors\r\n    error DataAlreadyRegistered(address owner);\r\n    error RecordNotActive(address owner);\r\n    error UserAlreadyAuthorized(address owner, address user);\r\n    error AccessAlreadyRequested(address owner, address company);\r\n    error NoPendingRequestForCompany(address owner, address company);\r\n    error UserNotFoundInAuthorizedList(address owner, address user);\r\n\r\n    // Events\r\n    event ConsentRegistered(address indexed owner, string dataHash, uint64 timestamp);\r\n    event AccessGranted(address indexed owner, address indexed authorizedUser, uint64 timestamp);\r\n    event AccessRevoked(address indexed owner, address indexed revokedUser, uint64 timestamp);\r\n    event AccessRequested(address indexed owner, address indexed company);\r\n    event RequestApproved(address indexed owner, address indexed company);\r\n\r\n    /// @custom:oz-upgrades-unsafe-allow constructor\r\n    constructor() {\r\n        _disableInitializers();\r\n    }\r\n\r\n    /// @notice Initializes the proxy contract\r\n    function initialize(address initialOwner) initializer public {\r\n        __Ownable_init(initialOwner);\r\n        __UUPSUpgradeable_init();\r\n    }\r\n\r\n    /// @notice Reverts if the sender does not have an active record\r\n    modifier onlyActiveRecord(address _owner) {\r\n        if (!records[_owner].active) revert RecordNotActive(_owner);\r\n        _;\r\n    }\r\n\r\n    /// @notice Returns data record and an array of authorized users \r\n    function getRecordByOwner(address _owner) public view returns (\r\n        string memory dataHash, \r\n        address owner, \r\n        address[] memory authorizedUsers, \r\n        uint64 timestamp, \r\n        bool active\r\n    ) {\r\n        DataRecord storage recordData = records[_owner];\r\n        return (\r\n            recordData.dataHash, \r\n            recordData.owner, \r\n            authorizedCompanies[_owner].values(), \r\n            recordData.timestamp, \r\n            recordData.active\r\n        );\r\n    }\r\n\r\n    /// @notice Registers initial data for a user\r\n    function registerData(string memory _dataHash, address[] memory _initialAuthorizedUsers) public {\r\n        if (records[msg.sender].active) revert DataAlreadyRegistered(msg.sender);\r\n        \r\n        records[msg.sender] = DataRecord({\r\n            dataHash: _dataHash, \r\n            owner: msg.sender, \r\n            timestamp: uint64(block.timestamp), \r\n            active: true\r\n        });\r\n        \r\n        for (uint i = 0; i < _initialAuthorizedUsers.length; i++) {\r\n            authorizedCompanies[msg.sender].add(_initialAuthorizedUsers[i]);\r\n            emit AccessGranted(msg.sender, _initialAuthorizedUsers[i], uint64(block.timestamp));\r\n        }\r\n\r\n        emit ConsentRegistered(msg.sender, _dataHash, uint64(block.timestamp));\r\n    }\r\n\r\n    /// @notice Authorizes a single company\r\n    function authorizeAccess(address user) public onlyActiveRecord(msg.sender) {\r\n        bool added = authorizedCompanies[msg.sender].add(user);\r\n        if (!added) revert UserAlreadyAuthorized(msg.sender, user);\r\n\r\n        emit AccessGranted(msg.sender, user, uint64(block.timestamp));\r\n    }\r\n\r\n    /// @notice Requested by a company to gain access to user data\r\n    function requestAccess(address _owner) public onlyActiveRecord(_owner) {\r\n        if (accessRequests[_owner][msg.sender] != 0) revert AccessAlreadyRequested(_owner, msg.sender);\r\n\r\n        accessRequests[_owner][msg.sender] = 1; // 1 = Pending\r\n        emit AccessRequested(_owner, msg.sender);\r\n    }\r\n\r\n    /// @notice Approved by the user for a pending request\r\n    function approveRequest(address _company) public onlyActiveRecord(msg.sender) {\r\n        if (accessRequests[msg.sender][_company] != 1) revert NoPendingRequestForCompany(msg.sender, _company);\r\n\r\n        accessRequests[msg.sender][_company] = 2; // 2 = Approved\r\n        authorizeAccess(_company);\r\n\r\n        emit RequestApproved(msg.sender, _company);\r\n    }\r\n\r\n    /// @notice Revokes a company's access to user data\r\n    function revokeAccess(address user) public onlyActiveRecord(msg.sender) {\r\n        bool removed = authorizedCompanies[msg.sender].remove(user);\r\n        if (!removed) revert UserNotFoundInAuthorizedList(msg.sender, user);\r\n        \r\n        if(accessRequests[msg.sender][user] == 2) {\r\n            accessRequests[msg.sender][user] = 0;\r\n        }\r\n\r\n        emit AccessRevoked(msg.sender, user, uint64(block.timestamp));\r\n    }\r\n\r\n    /// @dev Required by UUPS, limits upgrade access strictly to the owner of the proxy\r\n    function _authorizeUpgrade(address newImplementation) internal onlyOwner override {}\r\n}",
  "sourcePath": "C:\\Users\\Administrador\\Desktop\\Blockchain\\Projeto V2\\Contrato\\contracts\\DataConsent.sol",
  "compiler": {
    "name": "solc",
    "version": "0.8.20+commit.a1b79de6.Emscripten.clang"
  },
  "schemaVersion": "3.4.16",
  "updatedAt": "2026-03-14T14:56:00.439Z",
  "networkType": "ethereum",
  "devdoc": {
    "details": "Uses UUPS proxy pattern and EnumerableSet for O(1) loop-free access checks",
    "errors": {
      "AddressEmptyCode(address)": [
        {
          "details": "There's no code at `target` (it is not a contract)."
        }
      ],
      "ERC1967InvalidImplementation(address)": [
        {
          "details": "The `implementation` of the proxy is invalid."
        }
      ],
      "ERC1967NonPayable()": [
        {
          "details": "An upgrade function sees `msg.value > 0` that may be lost."
        }
      ],
      "FailedInnerCall()": [
        {
          "details": "A call to an address target failed. The target may have reverted."
        }
      ],
      "InvalidInitialization()": [
        {
          "details": "The contract is already initialized."
        }
      ],
      "NotInitializing()": [
        {
          "details": "The contract is not initializing."
        }
      ],
      "OwnableInvalidOwner(address)": [
        {
          "details": "The owner is not a valid owner account. (eg. `address(0)`)"
        }
      ],
      "OwnableUnauthorizedAccount(address)": [
        {
          "details": "The caller account is not authorized to perform an operation."
        }
      ],
      "UUPSUnauthorizedCallContext()": [
        {
          "details": "The call is from an unauthorized context."
        }
      ],
      "UUPSUnsupportedProxiableUUID(bytes32)": [
        {
          "details": "The storage `slot` is unsupported as a UUID."
        }
      ]
    },
    "events": {
      "Initialized(uint64)": {
        "details": "Triggered when the contract has been initialized or reinitialized."
      },
      "Upgraded(address)": {
        "details": "Emitted when the implementation is upgraded."
      }
    },
    "kind": "dev",
    "methods": {
      "constructor": {
        "custom:oz-upgrades-unsafe-allow": "constructor"
      },
      "owner()": {
        "details": "Returns the address of the current owner."
      },
      "proxiableUUID()": {
        "details": "Implementation of the ERC1822 {proxiableUUID} function. This returns the storage slot used by the implementation. It is used to validate the implementation's compatibility when performing an upgrade. IMPORTANT: A proxy pointing at a proxiable contract should not be considered proxiable itself, because this risks bricking a proxy that upgrades to it, by delegating to itself until out of gas. Thus it is critical that this function revert if invoked through a proxy. This is guaranteed by the `notDelegated` modifier."
      },
      "renounceOwnership()": {
        "details": "Leaves the contract without owner. It will not be possible to call `onlyOwner` functions. Can only be called by the current owner. NOTE: Renouncing ownership will leave the contract without an owner, thereby disabling any functionality that is only available to the owner."
      },
      "transferOwnership(address)": {
        "details": "Transfers ownership of the contract to a new account (`newOwner`). Can only be called by the current owner."
      },
      "upgradeToAndCall(address,bytes)": {
        "custom:oz-upgrades-unsafe-allow-reachable": "delegatecall",
        "details": "Upgrade the implementation of the proxy to `newImplementation`, and subsequently execute the function call encoded in `data`. Calls {_authorizeUpgrade}. Emits an {Upgraded} event."
      }
    },
    "title": "DataConsent ",
    "version": 1
  },
  "userdoc": {
    "kind": "user",
    "methods": {
      "approveRequest(address)": {
        "notice": "Approved by the user for a pending request"
      },
      "authorizeAccess(address)": {
        "notice": "Authorizes a single company"
      },
      "getRecordByOwner(address)": {
        "notice": "Returns data record and an array of authorized users "
      },
      "initialize(address)": {
        "notice": "Initializes the proxy contract"
      },
      "registerData(string,address[])": {
        "notice": "Registers initial data for a user"
      },
      "requestAccess(address)": {
        "notice": "Requested by a company to gain access to user data"
      },
      "revokeAccess(address)": {
        "notice": "Revokes a company's access to user data"
      }
    },
    "notice": "Upgradeable smart contract to track user-granted data consent to companies",
    "version": 1
  }
}